:0300000002011AE0
:100003000175DD008582E18583E275E30375DB0716
:1000130075DB0300E5DC0075DB0775DB0F2275DD9F
:10002300FF8582E18583E275E303F5DC75DB077504
:10003300DB0575DB0775DB0F22900AAA74AA120091
:10004300219005557455120021900AAA748012005C
:1000530021900AAA74AA1200219005557455120022
:10006300219000007430120021900000120004F46B
:1000730070F722C083C082C0E0900AAA74AA12005B
:10008300219005557455120021900AAA74A01200FC
:1000930021D0E0D082D083F8120021120004C3984B
:1000A30070F92212003C900000E530120076A3E5BF
:1000B30031120076A3E532120076A3E533120076FF
:1000C300A3E534120076A37455120076A374AA1222
:1000D30000762275307875313C7532DC75332D75B9
:1000E300343C900006120004B4AA2B1582120004BB
:1000F300B455231582120004F5341582120004F559
:10010300331582120004F5321582120004F53115FD
:1001130082120004F5302275817F75E80075950021
:10012300759E0075F80075030275300775313B75D0
:10013300320B7533021200A675300075310075322B
:10014300007533001200D68531E885309585339EDE
:060153008532F802012CC8
:00000001FF
