:03000000020BB53B
:03000B0002098E59
:03001B0002090ACD
:10001E00C0E0C0D0C000C001C002E4F53FF540F51D
:10002E0041F542F5437A20E536A2E779047833E6C6
:10003E0033F608D9FA7905783FE636D4F608D9F9B9
:10004E00DAE5D002D001D000D0D0D0E022C0E0C09E
:10005E00D0C000C001C002E4F53FF540F541F542C5
:10006E00F5437A20E536A2E779047833E633F608CD
:10007E00D9FA7905783FC0D0E6243320E70224D0A0
:10008E0020E30224FDD0D033F608D9EADAD6D00226
:10009E00D001D000D0D0D0E022C0E0C0D0C000C08F
:1000AE0001C0027A207905C37843E613C0D030E749
:1000BE000224D030E30224FDF618D0D0D9EC790416
:1000CE007836E613F618D9FADADBD002D001D00072
:1000DE00D0D0D0E022C0E0C0D0E5332537F533E5EF
:1000EE00343538F534E5353539F535E536353AF507
:1000FE0036D0D0D0E022C0E0C0D0C3E5339537F57E
:10010E0033E5349538F534E5359539F535E53695DD
:10011E003AF536D0D0D0E022C0E0C0D0C3E533955A
:10012E0037E5349538E5359539E536953A9200D070
:10013E00D0D0E022C0E0C0D0C3E5379533E5389586
:10014E0034E5399535E53A95369200D0D0D0E02297
:10015E00C0E0C0D0C200C3E53795337014E53895C2
:10016E0034700EE53995357008E53A95367002D241
:10017E0000D0D0D0E02212015E2000030201422204
:10018E0012015E20000302012622C0E0C0F0C0D0A2
:10019E00C000C001C002C003E5338537F0A4F8A942
:1001AE00F0E5348537F0A429F9E435F0FAE5338526
:1001BE0038F0A429F9E5F03AFAE433FBE535853752
:1001CE00F0A42AFAE5F03BFBE5348538F0A42AFAD0
:1001DE00E5F03BFBE5338539F0A42AFAE5F03BFB6D
:1001EE00E5368537F0A42BFBE5358538F0A42BFBDF
:1001FE00E5348539F0A42BFBE533853AF0A42BFBCF
:10020E008B368A3589348833D003D002D001D000A2
:10021E00D0D0D0F0D0E022C0E0C0D0C000C001C02D
:10022E0002C003C0047C20E4F8F9FAFBC3E53333C3
:10023E00F533E53433F534E53533F535E53633F559
:10024E0036E833F8E933F9EA33FAEB33FBC3E895D2
:10025E0037E99538EA9539EB953A4013E89537F832
:10026E00E99538F9EA9539FAEB953AFB433301DC17
:10027E00BBD004D003D002D001D000D0D0D0E02229
:10028E0075917F75927F75937F75947F758E7F754F
:10029E008F7F75967F75977F22900811E53F540FDB
:1002AE0093F591E53FC4540F93F592E540540F93A7
:1002BE00F5932220080874801203450202D1748B34
:1002CE00120345E540C0E0C4540F6007D207443026
:1002DE0012035ED0E0540F20070260054430120373
:1002EE005EE53FC0E0C4540F300802600544301292
:1002FE00035E200805742E12035ED0E0540F4430C6
:10030E0012035E20080D74DF12035E744312035E47
:10031E00020329747312035E020329742012035E12
:10032E00742012035E22C001740112034579281253
:10033E0003A0D9FBD00122F5D9C2DA0000D2D90030
:10034E000000000000000000000000C2D90203A05F
:10035E00F5D9D2DA0000D2D900000000000000006A
:10036E0000000000C2D90203A0D2D8D2DA75D9009B
:10037E000000D2D9000000000000000000000000C4
:10038E00C2D9C2D80203A0E493600612035EA38012
:10039E00F622C0007895000000000000D8F8D000CA
:1003AE0022742012035ED8F922C000C001C0027A66
:1003BE00B479FA7896D8FED9FADAF6D002D001D00E
:1003CE000022C0057D14DDFED00522753300753484
:1003DE0000753500753600753700753800753900B3
:1003EE00753A007550007A00754AA875F000E54A16
:1003FE00120345740F120345C3C200BA030302046D
:10040E0053790075F000E5E86004F8020426E595DE
:10041E0054036031F802042EE5E870FCE80204355E
:10042E00E59570FCE879011305F050FB15F0E5F049
:10043E00B901022408FFC0E012050BD0E0243012EF
:10044E00035E0A054A1204D920FA0630FAFD0204A8
:10045E00D820FBA530FBFD753A00753900753800C4
:10046E007537FFC200120142300036740C1203457C
:10047E0012033474801203459008EC12039574A88D
:10048E001203459008F91203951203B71203B7121F
:10049E0003B7753400753500753600120559020321
:1004AE00D9E551B4060685334B0204D8B407068548
:1004BE00334C0204D8B4080685334D0204D8B4096F
:1004CE000685334E0204D885334F2220F92EE54A95
:1004DE0094A7602830F9FD154AE54A1203457420A9
:1004EE0012035E74A8120345B54A030205031203F4
:1004FE0077040204F675370A1202251A2275370A96
:10050E001201988533378F331200E32220F92E30F3
:10051E00F9FDB48009748F12034520050122B48FB2
:10052E000674A812034522B4A80D780F120377D8CB
:10053E00FB74B72004012274801203452222154A4F
:10054E00E54A9480F8120377D8FB22120334A8519F
:10055E00B8001A748012034590082112039574A8EE
:10056E0012034590082812039512028E22B8010438
:10057E0012028E22B8021A748012034590083212AB
:10058E00039574A81203459008E612039512028E85
:10059E0022B80324748012034590086712039574E1
:1005AE00A8120345900872120395748F12034574B6
:1005BE007E12035E12028E22B8042E748012034540
:1005CE0090084D12039574A812034590085A120311
:1005DE0095748F120345747E12035E74B712034531
:1005EE00747F12035E12028E22B8052474801203E9
:1005FE004590084212039574A81203459008E6121E
:10060E00039574B7120345747F12035E12028E2295
:10061E00B8061574801203459008A2120395854BF7
:10062E003312001E1202A722B8071574801203455A
:10063E009008AD120395854C3312001E1202A722AC
:10064E00B808157480120345900888120395854DDD
:10065E003312001E1202A722B80915748012034528
:10066E00900895120395854E3312001E1202A72292
:10067E00748012034590087D120395854F33120046
:10068E001E1202A72220FB0630FBFD02069F020768
:10069E00C8A851B80023B4801475510175470112D2
:1006AE0005597480120345740C12034522755102CC
:1006BE00120559748012034522B8010122B8022393
:1006CE00B48010755103D204C205120559748012FC
:1006DE00034522755100D204D205120559748012B9
:1006EE00034522B80340B480157551061205591200
:1006FE0003D9755103120559748012034522B48F24
:10070E0010755104C204C2051205597480120345B6
:10071E00227551071205591203D975510312055945
:10072E0074A812034522B80453B4801575510812EB
:10073E0005591203D97551041205597480120345D7
:10074E0022B48F10755105C204D20512055974805A
:10075E0012034522B4A8157551091205591203D971
:10076E0075510412055974A812034522755103C21E
:10077E0005D204120559748012034522B8053BB404
:10078E00801575510A1205591203D97551051205B6
:10079E0059748012034522B4A810755102C205D2B5
:1007AE0004120559748012034522755104C205C204
:1007BE000412055974801203452222D2DBC2D912CB
:1007CE0003A075DAFFC2D8740C12034574381203F5
:1007DE004512033422740F120345D204D2051205BA
:1007EE00597480120345227C007D00788A75F08052
:1007FE00754B00754C00754D00754E00754F0075AC
:03080E0051002274
:10081100C0F9A4B0999282F880908883C6A1868E8F
:10082100A5426567696E00A553657474696E677347
:1008310000A553657420706172616D657465727392
:1008410000A552616D702074696D6500A5526566E1
:100851006C6F772074656D7000A55265666C6F775B
:100861002074696D6500A5536F616B2074656D70AF
:1008710000A5536F616B2074696D650052616D70E5
:100881002074696D653A005265666C6F77207465F6
:100891006D703A005265666C6F772074696D653AC8
:1008A10000536F616B2074656D703A00536F616B1B
:1008B1002074696D653A0052616D7020746F207308
:1008C1006F616B00536F616B0052616D7020746FCB
:1008D100207065616B005265666C6F7700436F6FC6
:1008E1006C696E6700A54261636B004572726F723D
:1008F1003A2056616C756500677265617465722096
:100901007468616E2032353500758D93758B810564
:1009110031C0E0C0D0C000C001C002C003C3E53196
:100921009463405CE54404F544E5453400F545A88D
:1009310033A934AA35AB36AC3FAD40C000C001C0CD
:1009410002C003C004C0057533007534007535005D
:1009510075360085443385453412001ED2081202D3
:10096100C1C208D005D004D003D002D001D0008884
:100971003389348A358B368C3F8D4005467531007D
:10098100D003D002D001D000D0D0D0E032758CFDA0
:10099100758A4AC0E0C0D0300602B286E532B40A98
:1009A10004D285801BB40004C28580140530E53073
:1009B100B40A08753000753000D285B53202C2859F
:1009C100D0D0D0E032758911C28CC28D758CFD7585
:1009D1008A4AD28CD2A9C28EC28F758D93758B81B2
:1009E100D28ED2ABD2AF22439A06539AFEC2822252
:1009F10079007A08E833F89281D282A280E933F94A
:100A0100C282DAF022C28378011209F1E5F0C454FE
:100A1100F0D2E7F81209F1E95403FF78551209F110
:100A2100E9FED2831203D022C0F9A4B0999282F8D0
:100A310080908883900A29E540C4540F93F594E58A
:100A410040540F93F593E53FC4540F93F592E53F5E
:100A5100540F93F59122900A29E540C4540F93F560
:100A610097E540540F93F596E53FC4540F93F58FE6
:100A7100E53F540F93F58E22C2CA75C83075CBFF7E
:100A810075CAF7D2CA759852223099FDC299F59963
:100A9100227A5A79FA78FAD8FED9FADAF622120AC3
:100AA10092120A92120A92120A9222E540C4540F3B
:100AB1004430120A8AE540540F4430120A8AE53F55
:100AC100C4540F4430120A8A742E120A8AE53F5424
:100AD1000F4430120A8A22E4936006120A8AA38024
:100AE100F62248656C6C6F2C20576F726C64210D77
:100AF1000A003031323334353637383975360075BE
:100B010035008F348E337537E875380375390075C4
:100B11003A00120198753700753804753900753A35
:100B210000120225753705753800753900753A00D0
:100B3100120198753732753800753900753A00120F
:100B41000198753764753800753900753A001202DD
:100B510025853B37853C38853D39853E3A1200E392
:100B6100227536007535008F348E337537E8753848
:100B710003753900753A001201987537007538040C
:100B8100753900753A0012022575370575380075FB
:100B91003900753A001201987537AA75380A753906
:100BA10000753A0012010485333B85343C85353D9F
:100BB10085363E2275817F75E800759500759E002A
:100BC10075F800753B00753C00753D00753E00757C
:100BD1003000753100753200754600754700754863
:100BE100007C007D00788A75F080D202C205C204C3
:100BF100755100D2DBC2D91203A075DAFFC2D874D5
:100C01000C12034574381203451203341203347471
:100C11000F120345D204D2051205597480120345FF
:100C2100C0E0754B14754C0A754D14754E0A754F1D
:100C310000C206C286C200439A68C285C286754454
:100C410000754500C2AFD0E07533007534007535CD
:100C51000075360012069312051AC0E0E547B4018B
:100C6100DD1209C6120A791209E875470020FB0650
:100C710030FBFD020BB575F000120A06120AFD12D7
:100C8100001E120A351202C175370A75380075390E
:100C910000753A00120225853348120A92120AACF5
:100CA100740D120A8A740A120A8A75F001120A0670
:100CB100120B6285463375340075350075360012A6
:100CC100001E120A57E5478547F8B4000E75470123
:100CD100D206754600753100020C6EC0E074A81290
:100CE10003459008B8120395D0E0C206C286B4014C
:100CF1001C75320A854B95E54BC3149548500B750D
:100D01004702D206754600753100020C6EC0E074D0
:100D1100A81203459008C512039578081203AFD0B5
:100D2100E0C206C286B40228E54BC395485005755A
:100D310032008003753202854C95E54CC31495460B
:100D4100500B754600753100754703D206020C6ED3
:100D5100C0E074A81203459008CA120395D0E0C2FE
:100D610006C286B4031C75320A854D95E54DC31440
:100D71009548500B754704D206754600753100023F
:100D81000C6EC0E074A81203459008D71203957841
:100D9100061203AFD0E0C206C286B4041F75320149
:100DA100854E95E54EC3149546500E754705D206FE
:100DB100120A9F754600753100020C6EC0E074A8DE
:100DC1001203459008DE120395D0E0C206C2867573
:100DD1003200C3E54894325077D206120A92C20615
:100DE100C286120A92D206120A92C206C286120A5A
:100DF10092D206120A92C206C286120A92D2061232
:100E01000A92C206C286120A92D206120A92C20639
:100E1100C286120A92D206120A92C206C286120A29
:100E210092D206120A92C206C28675460075310038
:100E31007547008547F875510012055974801203F2
:100E410045740F1203457595007480C0E0020C3F94
:030E5100020C6E22
:00000001FF
